{
  "contractName": "RegisterCompany",
  "abi": [
    {
      "inputs": [],
      "payable": false,
      "stateMutability": "nonpayable",
      "type": "constructor"
    },
    {
      "anonymous": false,
      "inputs": [
        {
          "indexed": false,
          "internalType": "uint256",
          "name": "companyId",
          "type": "uint256"
        },
        {
          "indexed": false,
          "internalType": "string",
          "name": "name",
          "type": "string"
        }
      ],
      "name": "CompanyRegistered",
      "type": "event"
    },
    {
      "anonymous": false,
      "inputs": [
        {
          "indexed": false,
          "internalType": "string",
          "name": "message",
          "type": "string"
        }
      ],
      "name": "Error",
      "type": "event"
    },
    {
      "anonymous": false,
      "inputs": [
        {
          "indexed": false,
          "internalType": "uint256",
          "name": "productId",
          "type": "uint256"
        },
        {
          "indexed": false,
          "internalType": "string",
          "name": "prodName",
          "type": "string"
        }
      ],
      "name": "ProductRegistered",
      "type": "event"
    },
    {
      "constant": true,
      "inputs": [
        {
          "internalType": "uint256",
          "name": "",
          "type": "uint256"
        }
      ],
      "name": "companies",
      "outputs": [
        {
          "internalType": "uint256",
          "name": "companyId",
          "type": "uint256"
        },
        {
          "internalType": "address payable",
          "name": "owner",
          "type": "address"
        },
        {
          "internalType": "string",
          "name": "companyName",
          "type": "string"
        },
        {
          "internalType": "string",
          "name": "location",
          "type": "string"
        },
        {
          "internalType": "string",
          "name": "businessNumber",
          "type": "string"
        },
        {
          "internalType": "bool",
          "name": "isInsuranceCompany",
          "type": "bool"
        }
      ],
      "payable": false,
      "stateMutability": "view",
      "type": "function"
    },
    {
      "constant": true,
      "inputs": [
        {
          "internalType": "uint256",
          "name": "",
          "type": "uint256"
        }
      ],
      "name": "products",
      "outputs": [
        {
          "internalType": "uint256",
          "name": "productId",
          "type": "uint256"
        },
        {
          "internalType": "string",
          "name": "prodName",
          "type": "string"
        },
        {
          "internalType": "uint256",
          "name": "companyId",
          "type": "uint256"
        },
        {
          "internalType": "uint256",
          "name": "sellingPrice",
          "type": "uint256"
        }
      ],
      "payable": false,
      "stateMutability": "view",
      "type": "function"
    },
    {
      "constant": false,
      "inputs": [
        {
          "internalType": "string",
          "name": "_companyName",
          "type": "string"
        },
        {
          "internalType": "string",
          "name": "_location",
          "type": "string"
        },
        {
          "internalType": "string",
          "name": "_businessNumber",
          "type": "string"
        }
      ],
      "name": "createCompany",
      "outputs": [
        {
          "internalType": "uint256",
          "name": "",
          "type": "uint256"
        }
      ],
      "payable": false,
      "stateMutability": "nonpayable",
      "type": "function"
    },
    {
      "constant": true,
      "inputs": [
        {
          "internalType": "uint256",
          "name": "_companyId",
          "type": "uint256"
        }
      ],
      "name": "getCompany",
      "outputs": [
        {
          "internalType": "uint256",
          "name": "companyId",
          "type": "uint256"
        },
        {
          "internalType": "address payable",
          "name": "owner",
          "type": "address"
        },
        {
          "internalType": "string",
          "name": "companyName",
          "type": "string"
        },
        {
          "internalType": "string",
          "name": "location",
          "type": "string"
        },
        {
          "internalType": "string",
          "name": "businessNumber",
          "type": "string"
        },
        {
          "internalType": "bool",
          "name": "isInsuranceCompany",
          "type": "bool"
        }
      ],
      "payable": false,
      "stateMutability": "view",
      "type": "function"
    },
    {
      "constant": false,
      "inputs": [
        {
          "internalType": "uint256",
          "name": "_companyId",
          "type": "uint256"
        },
        {
          "internalType": "string",
          "name": "_prodName",
          "type": "string"
        },
        {
          "internalType": "uint256",
          "name": "_sellingPrice",
          "type": "uint256"
        }
      ],
      "name": "registerProduct",
      "outputs": [
        {
          "internalType": "bool",
          "name": "success",
          "type": "bool"
        }
      ],
      "payable": false,
      "stateMutability": "nonpayable",
      "type": "function"
    },
    {
      "constant": true,
      "inputs": [
        {
          "internalType": "uint256",
          "name": "_productId",
          "type": "uint256"
        }
      ],
      "name": "getProduct",
      "outputs": [
        {
          "internalType": "uint256",
          "name": "productId",
          "type": "uint256"
        },
        {
          "internalType": "string",
          "name": "prodName",
          "type": "string"
        },
        {
          "internalType": "uint256",
          "name": "companyId",
          "type": "uint256"
        },
        {
          "internalType": "uint256",
          "name": "sellingPrice",
          "type": "uint256"
        }
      ],
      "payable": false,
      "stateMutability": "view",
      "type": "function"
    }
  ],
  "bytecode": "0x6080604052600060015560006002556000600355600060045534801561002457600080fd5b5060008054600160a060020a03191633179055610ff6806100466000396000f3fe608060405234801561001057600080fd5b506004361061008f576000357c0100000000000000000000000000000000000000000000000000000000900480637b60626d1161006d5780637b60626d146100f857806380be9dd414610118578063b9db15b4146101385761008f565b80632813d19d1461009457806357d13917146100c25780637acc0b20146100d5575b600080fd5b6100a76100a2366004610c75565b61014b565b6040516100b996959493929190610dfd565b60405180910390f35b6100a76100d0366004610c75565b610337565b6100e86100e3366004610c75565b610585565b6040516100b99493929190610e8c565b61010b610106366004610be1565b610638565b6040516100b99190610def565b61012b610126366004610c9b565b6107cf565b6040516100b99190610dc1565b6100e8610146366004610c75565b610940565b60056020908152600091825260409182902080546001808301546002808501805488516101009582161595909502600019011691909104601f8101879004870284018701909752868352929573ffffffffffffffffffffffffffffffffffffffff909116949192918301828280156102045780601f106101d957610100808354040283529160200191610204565b820191906000526020600020905b8154815290600101906020018083116101e757829003601f168201915b5050505060038301805460408051602060026001851615610100026000190190941693909304601f81018490048402820184019092528181529495949350908301828280156102945780601f1061026957610100808354040283529160200191610294565b820191906000526020600020905b81548152906001019060200180831161027757829003601f168201915b5050505060048301805460408051602060026001851615610100026000190190941693909304601f81018490048402820184019092528181529495949350908301828280156103245780601f106102f957610100808354040283529160200191610324565b820191906000526020600020905b81548152906001019060200180831161030757829003601f168201915b5050506005909301549192505060ff1686565b60008060608060606000610349610a6e565b600088815260056020908152604091829020825160c0810184528154815260018083015473ffffffffffffffffffffffffffffffffffffffff16828501526002808401805487516101009482161594909402600019011691909104601f810186900486028301860187528083529295939493860193919290918301828280156104135780601f106103e857610100808354040283529160200191610413565b820191906000526020600020905b8154815290600101906020018083116103f657829003601f168201915b505050918352505060038201805460408051602060026001851615610100026000190190941693909304601f81018490048402820184019092528181529382019392918301828280156104a75780601f1061047c576101008083540402835291602001916104a7565b820191906000526020600020905b81548152906001019060200180831161048a57829003601f168201915b505050918352505060048201805460408051602060026001851615610100026000190190941693909304601f810184900484028201840190925281815293820193929183018282801561053b5780601f106105105761010080835404028352916020019161053b565b820191906000526020600020905b81548152906001019060200180831161051e57829003601f168201915b50505091835250506005919091015460ff16151560209182015281519082015160408301516060840151608085015160a090950151939d929c50909a509850919650945092505050565b6006602090815260009182526040918290208054600180830180548651600293821615610100026000190190911692909204601f8101869004860283018601909652858252919492939092908301828280156106225780601f106105f757610100808354040283529160200191610622565b820191906000526020600020905b81548152906001019060200180831161060557829003601f168201915b5050505050908060020154908060030154905084565b600080845111801561064b575060008351115b61065457600080fd5b61065c610a6e565b6040518060c0016040528061066f610a52565b81523360208083019190915260408083018990526060830188905260808301879052600060a09093018390528351808452600583529281902084518155848301516001820180547fffffffffffffffffffffffff00000000000000000000000000000000000000001673ffffffffffffffffffffffffffffffffffffffff909216919091179055908401518051949550929385939192610716926002850192910190610abc565b5060608201518051610732916003840191602090910190610abc565b506080820151805161074e916004840191602090910190610abc565b5060a091909101516005909101805460ff1916911515919091179055336000908152600760205260409081902080546001908101909155600380549091019055517f4029f3489cd63c89b7e6ba3ffe653928254985947312455aef042f0c96e73088906107be9083908990610e6c565b60405180910390a195945050505050565b60008381526005602052604081206001015473ffffffffffffffffffffffffffffffffffffffff163314610838576040517f08c379a000000000000000000000000000000000000000000000000000000000815260040161082f90610dcf565b60405180910390fd5b6000835111610873576040517f08c379a000000000000000000000000000000000000000000000000000000000815260040161082f90610ddf565b61087b610b3a565b604051806080016040528061088e610a61565b8152602080820187905260408083018990526060909201869052825160008181526006835292909220835181558382015180519495509293859391926108db926001850192910190610abc565b506040828101516002830155606090920151600390910155600480546001019055517ffe5345b00afbb8e30dd35f9905f6d7917ea45ca811cbcdb0de19673accc660fb9061092c9083908890610e6c565b60405180910390a150600195945050505050565b6000606060008061094f610b3a565b6006600087815260200190815260200160002060405180608001604052908160008201548152602001600182018054600181600116156101000203166002900480601f016020809104026020016040519081016040528092919081815260200182805460018160011615610100020316600290048015610a105780601f106109e557610100808354040283529160200191610a10565b820191906000526020600020905b8154815290600101906020018083116109f357829003601f168201915b50505091835250506002820154602080830191909152600390920154604091820152825191830151908301516060909301519199909850919650945092505050565b60028054600101908190555b90565b6001805481019081905590565b6040518060c0016040528060008152602001600073ffffffffffffffffffffffffffffffffffffffff1681526020016060815260200160608152602001606081526020016000151581525090565b828054600181600116156101000203166002900490600052602060002090601f016020900481019282601f10610afd57805160ff1916838001178555610b2a565b82800160010185558215610b2a579182015b82811115610b2a578251825591602001919060010190610b0f565b50610b36929150610b62565b5090565b6040518060800160405280600081526020016060815260200160008152602001600081525090565b610a5e91905b80821115610b365760008155600101610b68565b600082601f830112610b8d57600080fd5b8135610ba0610b9b82610ef8565b610ed1565b91508082526020830160208301858383011115610bbc57600080fd5b610bc7838284610f56565b50505092915050565b8035610bdb81610f9c565b92915050565b600080600060608486031215610bf657600080fd5b833567ffffffffffffffff811115610c0d57600080fd5b610c1986828701610b7c565b935050602084013567ffffffffffffffff811115610c3657600080fd5b610c4286828701610b7c565b925050604084013567ffffffffffffffff811115610c5f57600080fd5b610c6b86828701610b7c565b9150509250925092565b600060208284031215610c8757600080fd5b6000610c938484610bd0565b949350505050565b600080600060608486031215610cb057600080fd5b6000610cbc8686610bd0565b935050602084013567ffffffffffffffff811115610cd957600080fd5b610ce586828701610b7c565b9250506040610c6b86828701610bd0565b610cff81610f2d565b82525050565b610cff81610f38565b6000610d1982610f20565b610d238185610f24565b9350610d33818560208601610f62565b610d3c81610f92565b9093019392505050565b6000610d53600f83610f24565b7f636865636b20636f6d70616e7949440000000000000000000000000000000000815260200192915050565b6000610d8c601d83610f24565b7f70726f64756374206c656e6774682063616e6e6f74206265207a65726f000000815260200192915050565b610cff81610a5e565b60208101610bdb8284610d05565b60208082528101610bdb81610d46565b60208082528101610bdb81610d7f565b60208101610bdb8284610db8565b60c08101610e0b8289610db8565b610e186020830188610cf6565b8181036040830152610e2a8187610d0e565b90508181036060830152610e3e8186610d0e565b90508181036080830152610e528185610d0e565b9050610e6160a0830184610d05565b979650505050505050565b60408101610e7a8285610db8565b8181036020830152610c938184610d0e565b60808101610e9a8287610db8565b8181036020830152610eac8186610d0e565b9050610ebb6040830185610db8565b610ec86060830184610db8565b95945050505050565b60405181810167ffffffffffffffff81118282101715610ef057600080fd5b604052919050565b600067ffffffffffffffff821115610f0f57600080fd5b506020601f91909101601f19160190565b5190565b90815260200190565b6000610bdb82610f3d565b151590565b73ffffffffffffffffffffffffffffffffffffffff1690565b82818337506000910152565b60005b83811015610f7d578181015183820152602001610f65565b83811115610f8c576000848401525b50505050565b601f01601f191690565b610fa581610a5e565b8114610fb057600080fd5b5056fea365627a7a72315820ec2e32036bf0df9a9b97a94df955b9fa9af30f73f2eff0594c6806d1d82c9ddc6c6578706572696d656e74616cf564736f6c63430005110040",
  "source": "pragma solidity >=0.5.0 <0.6.9;\r\npragma experimental ABIEncoderV2;\r\n\r\nimport \"./RegisterCompanyInterface.sol\";\r\n\r\ncontract RegisterCompany is RegisterCompanyInterface{\r\n    \r\n    address payable admin;\r\n    \r\n    constructor() public {\r\n        admin = msg.sender;\r\n    }\r\n    \r\n    event CompanyRegistered( uint companyId, string name);\r\n    event ProductRegistered (uint productId, string prodName);\r\n    event Error(string message);\r\n    \r\n    struct Company {\r\n        uint companyId; // unique ID of every company\r\n        address payable owner; // address that owns that company-- each address can have multiple companies \r\n        string companyName; // name of the company\r\n        string location; // location for delivery \r\n        string businessNumber; // a unique identification number to match with public address\r\n        bool isInsuranceCompany; // true if insurance company\r\n        \r\n    }\r\n    \r\n    struct Product {\r\n        uint productId; // unique Id of product\r\n        string prodName; // product's name\r\n        uint companyId; // company ID which has the product registered\r\n        uint sellingPrice; // price in wei for the product\r\n    }\r\n    \r\n    uint private initProductId = 0; // initial Id of the product\r\n    uint private companyId = 0; // initial company ID\r\n    uint internal totalCompanies = 0; // total number of the companies\r\n    uint internal totalProducts = 0; // total number of products\r\n   \r\n    mapping (uint => Company) public companies; // mapping containing all the companies (id=>struct)\r\n    mapping (uint => Product) public products; // mapping containing all the products (id=>struct)\r\n    mapping (address => uint) private ownedCompanies; // total number of companies owned by an address\r\n\r\n\r\n    function generateCompanyId() internal returns(uint){\r\n        companyId +=1;\r\n        return companyId;\r\n        \r\n    }\r\n\r\n    function createCompany( string memory _companyName, string memory _location, string memory  _businessNumber) public returns( uint) { \r\n        // check if businessNumber is right using api oracle\r\n        // check if name and address matches the businessNumber\r\n        //requre businessNumber =9digits\r\n        require(bytes(_companyName).length >0 && (bytes(_location).length >0));\r\n        \r\n        \r\n        Company memory company;\r\n        \r\n        company = Company(generateCompanyId(), msg.sender,_companyName,_location,_businessNumber,false);\r\n        uint _companyId = company.companyId;\r\n        companies[_companyId] = company;\r\n        \r\n        ownedCompanies[msg.sender] +=1;\r\n        totalCompanies +=1;\r\n        \r\n        emit CompanyRegistered(_companyId, _companyName);\r\n        return _companyId;\r\n    }\r\n    \r\n    function getCompany (uint _companyId) public view returns (\r\n        uint companyId,\r\n        address payable owner,\r\n        string memory companyName,\r\n        string memory  location,\r\n        string memory  businessNumber,\r\n        bool isInsuranceCompany)\r\n        {\r\n     Company memory company = companies[_companyId];\r\n     \r\n     return(\r\n        company.companyId,\r\n        company.owner,\r\n        company.companyName,\r\n        company.location,\r\n        company.businessNumber,\r\n        company.isInsuranceCompany\r\n         );\r\n     \r\n        \r\n    }\r\n    \r\n    \r\n    function generateProductId()private returns(uint){\r\n        initProductId +=1;\r\n        return initProductId;\r\n    } \r\n    \r\n    function registerProduct ( uint _companyId, string memory _prodName,uint _sellingPrice ) public returns(bool success) {\r\n        // oracle if company actually manufactures that _product\r\n        // don't register if already registered\r\n        require( companies[_companyId].owner == msg.sender,\"check companyID\");\r\n        require(bytes(_prodName).length >0, \"product length cannot be zero\");\r\n        \r\n        Product memory product;\r\n        product = Product(generateProductId(),_prodName, _companyId,_sellingPrice);\r\n        uint _productId = product.productId;\r\n        products[_productId] = product;\r\n        // productToCompany[_productId] = _companyId;\r\n        // companyOwnedProductNumber[_companyId]+=1;\r\n        totalProducts+=1;\r\n        emit ProductRegistered(_productId,_prodName);\r\n        return true;\r\n    }\r\n    \r\n    function getProduct(uint _productId) public view returns (uint productId,\r\n        string memory prodName,\r\n        uint companyId,\r\n        uint sellingPrice\r\n        ){\r\n            Product memory product = products[_productId];\r\n            return(\r\n            product.productId,\r\n            product.prodName,\r\n            product.companyId,\r\n            product.sellingPrice\r\n        );\r\n        }\r\n    \r\n    \r\n}   \r\n    ",
  "sourcePath": "/home/buzzlite/Documents/ThesisNew/contracts/RegisterCompany.sol",
  "compiler": {
    "name": "solc",
    "version": "0.5.17+commit.d19bba13.Emscripten.clang"
  },
  "schemaVersion": "3.0.23",
  "updatedAt": "2020-07-28T05:58:52.065Z",
  "devdoc": {
    "methods": {}
  },
  "userdoc": {
    "methods": {}
  }
}